{
  "_format": "hh-sol-artifact-1",
  "contractName": "Blog",
  "sourceName": "contracts/Blog.sol",
  "abi": [
    {
      "inputs": [
        {
          "internalType": "string",
          "name": "_name",
          "type": "string"
        }
      ],
      "stateMutability": "nonpayable",
      "type": "constructor"
    },
    {
      "anonymous": false,
      "inputs": [
        {
          "indexed": false,
          "internalType": "uint256",
          "name": "id",
          "type": "uint256"
        },
        {
          "indexed": false,
          "internalType": "string",
          "name": "title",
          "type": "string"
        },
        {
          "indexed": false,
          "internalType": "string",
          "name": "hash",
          "type": "string"
        }
      ],
      "name": "PostCreated",
      "type": "event"
    },
    {
      "anonymous": false,
      "inputs": [
        {
          "indexed": false,
          "internalType": "uint256",
          "name": "id",
          "type": "uint256"
        },
        {
          "indexed": false,
          "internalType": "string",
          "name": "title",
          "type": "string"
        },
        {
          "indexed": false,
          "internalType": "string",
          "name": "hash",
          "type": "string"
        },
        {
          "indexed": false,
          "internalType": "bool",
          "name": "published",
          "type": "bool"
        }
      ],
      "name": "PostUpdated",
      "type": "event"
    },
    {
      "inputs": [
        {
          "internalType": "string",
          "name": "title",
          "type": "string"
        },
        {
          "internalType": "string",
          "name": "hash",
          "type": "string"
        }
      ],
      "name": "createPost",
      "outputs": [],
      "stateMutability": "nonpayable",
      "type": "function"
    },
    {
      "inputs": [
        {
          "internalType": "string",
          "name": "hash",
          "type": "string"
        }
      ],
      "name": "fetchPost",
      "outputs": [
        {
          "components": [
            {
              "internalType": "uint256",
              "name": "id",
              "type": "uint256"
            },
            {
              "internalType": "string",
              "name": "title",
              "type": "string"
            },
            {
              "internalType": "string",
              "name": "content",
              "type": "string"
            },
            {
              "internalType": "bool",
              "name": "published",
              "type": "bool"
            }
          ],
          "internalType": "struct Blog.Post",
          "name": "",
          "type": "tuple"
        }
      ],
      "stateMutability": "view",
      "type": "function"
    },
    {
      "inputs": [],
      "name": "fetchPosts",
      "outputs": [
        {
          "components": [
            {
              "internalType": "uint256",
              "name": "id",
              "type": "uint256"
            },
            {
              "internalType": "string",
              "name": "title",
              "type": "string"
            },
            {
              "internalType": "string",
              "name": "content",
              "type": "string"
            },
            {
              "internalType": "bool",
              "name": "published",
              "type": "bool"
            }
          ],
          "internalType": "struct Blog.Post[]",
          "name": "",
          "type": "tuple[]"
        }
      ],
      "stateMutability": "view",
      "type": "function"
    },
    {
      "inputs": [],
      "name": "name",
      "outputs": [
        {
          "internalType": "string",
          "name": "",
          "type": "string"
        }
      ],
      "stateMutability": "view",
      "type": "function"
    },
    {
      "inputs": [],
      "name": "owner",
      "outputs": [
        {
          "internalType": "address",
          "name": "",
          "type": "address"
        }
      ],
      "stateMutability": "view",
      "type": "function"
    },
    {
      "inputs": [
        {
          "internalType": "address",
          "name": "newOwner",
          "type": "address"
        }
      ],
      "name": "transferOwnership",
      "outputs": [],
      "stateMutability": "nonpayable",
      "type": "function"
    },
    {
      "inputs": [
        {
          "internalType": "string",
          "name": "_name",
          "type": "string"
        }
      ],
      "name": "updateName",
      "outputs": [],
      "stateMutability": "nonpayable",
      "type": "function"
    },
    {
      "inputs": [
        {
          "internalType": "uint256",
          "name": "postId",
          "type": "uint256"
        },
        {
          "internalType": "string",
          "name": "title",
          "type": "string"
        },
        {
          "internalType": "string",
          "name": "hash",
          "type": "string"
        },
        {
          "internalType": "bool",
          "name": "published",
          "type": "bool"
        }
      ],
      "name": "updatePost",
      "outputs": [],
      "stateMutability": "nonpayable",
      "type": "function"
    }
  ],
  "bytecode": "0x60806040523480156200001157600080fd5b5060405162001ac438038062001ac48339818101604052810190620000379190620002d5565b620000836040518060400160405280601981526020017f4465706c6f79696e6720426c6f672077697468206e616d653a0000000000000081525082620000e460201b62000a211760201c565b80600090805190602001906200009b929190620001b3565b5033600160006101000a81548173ffffffffffffffffffffffffffffffffffffffff021916908373ffffffffffffffffffffffffffffffffffffffff1602179055505062000522565b620001868282604051602401620000fd9291906200035b565b6040516020818303038152906040527f4b5c4277000000000000000000000000000000000000000000000000000000007bffffffffffffffffffffffffffffffffffffffffffffffffffffffff19166020820180517bffffffffffffffffffffffffffffffffffffffffffffffffffffffff83818316178352505050506200018a60201b60201c565b5050565b60008151905060006a636f6e736f6c652e6c6f679050602083016000808483855afa5050505050565b828054620001c19062000447565b90600052602060002090601f016020900481019282620001e5576000855562000231565b82601f106200020057805160ff191683800117855562000231565b8280016001018555821562000231579182015b828111156200023057825182559160200191906001019062000213565b5b50905062000240919062000244565b5090565b5b808211156200025f57600081600090555060010162000245565b5090565b60006200027a6200027484620003bf565b62000396565b9050828152602081018484840111156200029357600080fd5b620002a084828562000411565b509392505050565b600082601f830112620002ba57600080fd5b8151620002cc84826020860162000263565b91505092915050565b600060208284031215620002e857600080fd5b600082015167ffffffffffffffff8111156200030357600080fd5b6200031184828501620002a8565b91505092915050565b60006200032782620003f5565b62000333818562000400565b93506200034581856020860162000411565b620003508162000511565b840191505092915050565b600060408201905081810360008301526200037781856200031a565b905081810360208301526200038d81846200031a565b90509392505050565b6000620003a2620003b5565b9050620003b082826200047d565b919050565b6000604051905090565b600067ffffffffffffffff821115620003dd57620003dc620004e2565b5b620003e88262000511565b9050602081019050919050565b600081519050919050565b600082825260208201905092915050565b60005b838110156200043157808201518184015260208101905062000414565b8381111562000441576000848401525b50505050565b600060028204905060018216806200046057607f821691505b60208210811415620004775762000476620004b3565b5b50919050565b620004888262000511565b810181811067ffffffffffffffff82111715620004aa57620004a9620004e2565b5b80604052505050565b7f4e487b7100000000000000000000000000000000000000000000000000000000600052602260045260246000fd5b7f4e487b7100000000000000000000000000000000000000000000000000000000600052604160045260246000fd5b6000601f19601f8301169050919050565b61159280620005326000396000f3fe608060405234801561001057600080fd5b50600436106100885760003560e01c80638da5cb5b1161005b5780638da5cb5b14610113578063abaddd7f14610131578063cd349fe91461014f578063f2fde38b1461016b57610088565b806306fdde031461008d578063392338f5146100ab57806344828659146100c757806384da92a7146100f7575b600080fd5b610095610187565b6040516100a29190611113565b60405180910390f35b6100c560048036038101906100c09190610d75565b610215565b005b6100e160048036038101906100dc9190610d34565b610376565b6040516100ee919061116c565b60405180910390f35b610111600480360381019061010c9190610d34565b6104f7565b005b61011b610511565b60405161012891906110d6565b60405180910390f35b610139610537565b60405161014691906110f1565b60405180910390f35b61016960048036038101906101649190610de1565b6107af565b005b61018560048036038101906101809190610d0b565b610983565b005b60008054610194906113cd565b80601f01602080910402602001604051908101604052809291908181526020018280546101c0906113cd565b801561020d5780601f106101e25761010080835404028352916020019161020d565b820191906000526020600020905b8154815290600101906020018083116101f057829003601f168201915b505050505081565b61021f6002610abd565b600061022b6002610ad3565b9050600060036000838152602001908152602001600020905081816000018190555083816001019080519060200190610265929190610b0a565b5060018160030160006101000a81548160ff0219169083151502179055508281600201908051906020019061029b929190610b0a565b50806004846040516102ad91906110bf565b90815260200160405180910390206000820154816000015560018201816001019080546102d9906113cd565b6102e4929190610b90565b5060028201816002019080546102f9906113cd565b610304929190610b90565b506003820160009054906101000a900460ff168160030160006101000a81548160ff0219169083151502179055509050507fe6851f0b99a9d86e5d68a97f65218980851216ce297f789c6b6b7e82ca1d90c88285856040516103689392919061118e565b60405180910390a150505050565b61037e610c1d565b60048260405161038e91906110bf565b9081526020016040518091039020604051806080016040529081600082015481526020016001820180546103c1906113cd565b80601f01602080910402602001604051908101604052809291908181526020018280546103ed906113cd565b801561043a5780601f1061040f5761010080835404028352916020019161043a565b820191906000526020600020905b81548152906001019060200180831161041d57829003601f168201915b50505050508152602001600282018054610453906113cd565b80601f016020809104026020016040519081016040528092919081815260200182805461047f906113cd565b80156104cc5780601f106104a1576101008083540402835291602001916104cc565b820191906000526020600020905b8154815290600101906020018083116104af57829003601f168201915b505050505081526020016003820160009054906101000a900460ff1615151515815250509050919050565b806000908051906020019061050d929190610b0a565b5050565b600160009054906101000a900473ffffffffffffffffffffffffffffffffffffffff1681565b606060006105456002610ad3565b905060008167ffffffffffffffff811115610589577f4e487b7100000000000000000000000000000000000000000000000000000000600052604160045260246000fd5b6040519080825280602002602001820160405280156105c257816020015b6105af610c1d565b8152602001906001900390816105a75790505b50905060005b828110156107a65760006001826105df91906112ed565b90506000600360008381526020019081526020016000209050806040518060800160405290816000820154815260200160018201805461061e906113cd565b80601f016020809104026020016040519081016040528092919081815260200182805461064a906113cd565b80156106975780601f1061066c57610100808354040283529160200191610697565b820191906000526020600020905b81548152906001019060200180831161067a57829003601f168201915b505050505081526020016002820180546106b0906113cd565b80601f01602080910402602001604051908101604052809291908181526020018280546106dc906113cd565b80156107295780601f106106fe57610100808354040283529160200191610729565b820191906000526020600020905b81548152906001019060200180831161070c57829003601f168201915b505050505081526020016003820160009054906101000a900460ff161515151581525050848481518110610786577f4e487b7100000000000000000000000000000000000000000000000000000000600052603260045260246000fd5b60200260200101819052505050808061079e90611430565b9150506105c8565b50809250505090565b6000600360008681526020019081526020016000209050838160010190805190602001906107de929190610b0a565b50818160030160006101000a81548160ff02191690831515021790555082816002019080519060200190610813929190610b0a565b508060036000878152602001908152602001600020600082015481600001556001820181600101908054610846906113cd565b610851929190610b90565b506002820181600201908054610866906113cd565b610871929190610b90565b506003820160009054906101000a900460ff168160030160006101000a81548160ff021916908315150217905550905050806004846040516108b391906110bf565b90815260200160405180910390206000820154816000015560018201816001019080546108df906113cd565b6108ea929190610b90565b5060028201816002019080546108ff906113cd565b61090a929190610b90565b506003820160009054906101000a900460ff168160030160006101000a81548160ff0219169083151502179055509050507f9f8eb93fc073102bbd3072664634ab200707a4f11d94aace9cc8d0e4d019eff5816000015485858560405161097494939291906111d3565b60405180910390a15050505050565b600160009054906101000a900473ffffffffffffffffffffffffffffffffffffffff1673ffffffffffffffffffffffffffffffffffffffff163373ffffffffffffffffffffffffffffffffffffffff16146109dd57600080fd5b80600160006101000a81548173ffffffffffffffffffffffffffffffffffffffff021916908373ffffffffffffffffffffffffffffffffffffffff16021790555050565b610ab98282604051602401610a37929190611135565b6040516020818303038152906040527f4b5c4277000000000000000000000000000000000000000000000000000000007bffffffffffffffffffffffffffffffffffffffffffffffffffffffff19166020820180517bffffffffffffffffffffffffffffffffffffffffffffffffffffffff8381831617835250505050610ae1565b5050565b6001816000016000828254019250508190555050565b600081600001549050919050565b60008151905060006a636f6e736f6c652e6c6f679050602083016000808483855afa5050505050565b828054610b16906113cd565b90600052602060002090601f016020900481019282610b385760008555610b7f565b82601f10610b5157805160ff1916838001178555610b7f565b82800160010185558215610b7f579182015b82811115610b7e578251825591602001919060010190610b63565b5b509050610b8c9190610c47565b5090565b828054610b9c906113cd565b90600052602060002090601f016020900481019282610bbe5760008555610c0c565b82601f10610bcf5780548555610c0c565b82800160010185558215610c0c57600052602060002091601f016020900482015b82811115610c0b578254825591600101919060010190610bf0565b5b509050610c199190610c47565b5090565b60405180608001604052806000815260200160608152602001606081526020016000151581525090565b5b80821115610c60576000816000905550600101610c48565b5090565b6000610c77610c728461124b565b611226565b905082815260208101848484011115610c8f57600080fd5b610c9a84828561138b565b509392505050565b600081359050610cb181611517565b92915050565b600081359050610cc68161152e565b92915050565b600082601f830112610cdd57600080fd5b8135610ced848260208601610c64565b91505092915050565b600081359050610d0581611545565b92915050565b600060208284031215610d1d57600080fd5b6000610d2b84828501610ca2565b91505092915050565b600060208284031215610d4657600080fd5b600082013567ffffffffffffffff811115610d6057600080fd5b610d6c84828501610ccc565b91505092915050565b60008060408385031215610d8857600080fd5b600083013567ffffffffffffffff811115610da257600080fd5b610dae85828601610ccc565b925050602083013567ffffffffffffffff811115610dcb57600080fd5b610dd785828601610ccc565b9150509250929050565b60008060008060808587031215610df757600080fd5b6000610e0587828801610cf6565b945050602085013567ffffffffffffffff811115610e2257600080fd5b610e2e87828801610ccc565b935050604085013567ffffffffffffffff811115610e4b57600080fd5b610e5787828801610ccc565b9250506060610e6887828801610cb7565b91505092959194509250565b6000610e808383610fcd565b905092915050565b610e9181611343565b82525050565b6000610ea28261128c565b610eac81856112af565b935083602082028501610ebe8561127c565b8060005b85811015610efa5784840389528151610edb8582610e74565b9450610ee6836112a2565b925060208a01995050600181019050610ec2565b50829750879550505050505092915050565b610f1581611355565b82525050565b610f2481611355565b82525050565b6000610f3582611297565b610f3f81856112c0565b9350610f4f81856020860161139a565b610f5881611506565b840191505092915050565b6000610f6e82611297565b610f7881856112d1565b9350610f8881856020860161139a565b610f9181611506565b840191505092915050565b6000610fa782611297565b610fb181856112e2565b9350610fc181856020860161139a565b80840191505092915050565b6000608083016000830151610fe560008601826110a1565b5060208301518482036020860152610ffd8282610f2a565b915050604083015184820360408601526110178282610f2a565b915050606083015161102c6060860182610f0c565b508091505092915050565b600060808301600083015161104f60008601826110a1565b50602083015184820360208601526110678282610f2a565b915050604083015184820360408601526110818282610f2a565b91505060608301516110966060860182610f0c565b508091505092915050565b6110aa81611381565b82525050565b6110b981611381565b82525050565b60006110cb8284610f9c565b915081905092915050565b60006020820190506110eb6000830184610e88565b92915050565b6000602082019050818103600083015261110b8184610e97565b905092915050565b6000602082019050818103600083015261112d8184610f63565b905092915050565b6000604082019050818103600083015261114f8185610f63565b905081810360208301526111638184610f63565b90509392505050565b600060208201905081810360008301526111868184611037565b905092915050565b60006060820190506111a360008301866110b0565b81810360208301526111b58185610f63565b905081810360408301526111c98184610f63565b9050949350505050565b60006080820190506111e860008301876110b0565b81810360208301526111fa8186610f63565b9050818103604083015261120e8185610f63565b905061121d6060830184610f1b565b95945050505050565b6000611230611241565b905061123c82826113ff565b919050565b6000604051905090565b600067ffffffffffffffff821115611266576112656114d7565b5b61126f82611506565b9050602081019050919050565b6000819050602082019050919050565b600081519050919050565b600081519050919050565b6000602082019050919050565b600082825260208201905092915050565b600082825260208201905092915050565b600082825260208201905092915050565b600081905092915050565b60006112f882611381565b915061130383611381565b9250827fffffffffffffffffffffffffffffffffffffffffffffffffffffffffffffffff0382111561133857611337611479565b5b828201905092915050565b600061134e82611361565b9050919050565b60008115159050919050565b600073ffffffffffffffffffffffffffffffffffffffff82169050919050565b6000819050919050565b82818337600083830152505050565b60005b838110156113b857808201518184015260208101905061139d565b838111156113c7576000848401525b50505050565b600060028204905060018216806113e557607f821691505b602082108114156113f9576113f86114a8565b5b50919050565b61140882611506565b810181811067ffffffffffffffff82111715611427576114266114d7565b5b80604052505050565b600061143b82611381565b91507fffffffffffffffffffffffffffffffffffffffffffffffffffffffffffffffff82141561146e5761146d611479565b5b600182019050919050565b7f4e487b7100000000000000000000000000000000000000000000000000000000600052601160045260246000fd5b7f4e487b7100000000000000000000000000000000000000000000000000000000600052602260045260246000fd5b7f4e487b7100000000000000000000000000000000000000000000000000000000600052604160045260246000fd5b6000601f19601f8301169050919050565b61152081611343565b811461152b57600080fd5b50565b61153781611355565b811461154257600080fd5b50565b61154e81611381565b811461155957600080fd5b5056fea2646970667358221220dbb078c0894a457db75efa5b1ba617226e7eb452dadbfcaf832552ac93f7d95f64736f6c63430008040033",
  "linkReferences": {},
  "deployedLinkReferences": {}
}